{
  "contractName": "PlayDice",
  "abi": [
    {
      "constant": true,
      "inputs": [
        {
          "name": "",
          "type": "uint256"
        }
      ],
      "name": "unfinishedRoomID",
      "outputs": [
        {
          "name": "",
          "type": "uint256"
        }
      ],
      "payable": false,
      "stateMutability": "view",
      "type": "function"
    },
    {
      "constant": false,
      "inputs": [],
      "name": "killContract",
      "outputs": [],
      "payable": false,
      "stateMutability": "nonpayable",
      "type": "function"
    },
    {
      "constant": true,
      "inputs": [
        {
          "name": "roomID",
          "type": "uint256"
        }
      ],
      "name": "getRoomData",
      "outputs": [
        {
          "name": "playerNum",
          "type": "uint256"
        },
        {
          "name": "roomMoney",
          "type": "uint256"
        },
        {
          "name": "playerEnterdCount",
          "type": "uint256"
        },
        {
          "name": "playerRollNumList",
          "type": "uint256[6]"
        },
        {
          "name": "playerAddressList",
          "type": "address[6]"
        },
        {
          "name": "winMoneyList",
          "type": "uint256[6]"
        }
      ],
      "payable": false,
      "stateMutability": "view",
      "type": "function"
    },
    {
      "constant": false,
      "inputs": [
        {
          "name": "roomID",
          "type": "uint256"
        }
      ],
      "name": "getMoney",
      "outputs": [
        {
          "name": "",
          "type": "bool"
        }
      ],
      "payable": true,
      "stateMutability": "payable",
      "type": "function"
    },
    {
      "constant": true,
      "inputs": [
        {
          "name": "startID",
          "type": "uint256"
        }
      ],
      "name": "getUnfinishedRoomIDs",
      "outputs": [
        {
          "name": "backUnfinishedRoomIDs",
          "type": "uint256[]"
        }
      ],
      "payable": false,
      "stateMutability": "view",
      "type": "function"
    },
    {
      "constant": true,
      "inputs": [
        {
          "name": "",
          "type": "uint256"
        }
      ],
      "name": "finishedRoomID",
      "outputs": [
        {
          "name": "",
          "type": "uint256"
        }
      ],
      "payable": false,
      "stateMutability": "view",
      "type": "function"
    },
    {
      "constant": true,
      "inputs": [
        {
          "name": "",
          "type": "uint256"
        }
      ],
      "name": "winnerMoney",
      "outputs": [
        {
          "name": "",
          "type": "uint256"
        }
      ],
      "payable": false,
      "stateMutability": "view",
      "type": "function"
    },
    {
      "constant": false,
      "inputs": [
        {
          "name": "target",
          "type": "address"
        }
      ],
      "name": "getContractMoney",
      "outputs": [],
      "payable": true,
      "stateMutability": "payable",
      "type": "function"
    },
    {
      "constant": true,
      "inputs": [],
      "name": "getHotWinRoomIDs",
      "outputs": [
        {
          "name": "backHotWinRoomId",
          "type": "uint256[]"
        }
      ],
      "payable": false,
      "stateMutability": "view",
      "type": "function"
    },
    {
      "constant": false,
      "inputs": [
        {
          "name": "roomID",
          "type": "uint256"
        }
      ],
      "name": "joinRoom",
      "outputs": [],
      "payable": true,
      "stateMutability": "payable",
      "type": "function"
    },
    {
      "constant": true,
      "inputs": [
        {
          "name": "startFinishID",
          "type": "uint256"
        }
      ],
      "name": "getFinishedRoomIDs",
      "outputs": [
        {
          "name": "backFinishedRoomIDs",
          "type": "uint256[]"
        }
      ],
      "payable": false,
      "stateMutability": "view",
      "type": "function"
    },
    {
      "constant": true,
      "inputs": [
        {
          "name": "",
          "type": "uint256"
        }
      ],
      "name": "hotWinRoomID",
      "outputs": [
        {
          "name": "",
          "type": "uint256"
        }
      ],
      "payable": false,
      "stateMutability": "view",
      "type": "function"
    },
    {
      "constant": false,
      "inputs": [
        {
          "name": "playerNum",
          "type": "uint256"
        }
      ],
      "name": "createRoom",
      "outputs": [],
      "payable": true,
      "stateMutability": "payable",
      "type": "function"
    },
    {
      "constant": true,
      "inputs": [
        {
          "name": "",
          "type": "uint256"
        }
      ],
      "name": "allRoomsMap",
      "outputs": [
        {
          "name": "playerNum",
          "type": "uint256"
        },
        {
          "name": "roomMoney",
          "type": "uint256"
        },
        {
          "name": "playerEnterdCount",
          "type": "uint256"
        }
      ],
      "payable": false,
      "stateMutability": "view",
      "type": "function"
    },
    {
      "inputs": [],
      "payable": false,
      "stateMutability": "nonpayable",
      "type": "constructor"
    },
    {
      "anonymous": false,
      "inputs": [
        {
          "indexed": false,
          "name": "roomID",
          "type": "uint256"
        },
        {
          "indexed": false,
          "name": "playerNum",
          "type": "uint256"
        },
        {
          "indexed": false,
          "name": "roomMoney",
          "type": "uint256"
        },
        {
          "indexed": false,
          "name": "playerEnterdCount",
          "type": "uint256"
        },
        {
          "indexed": false,
          "name": "rollNumList",
          "type": "uint256[6]"
        },
        {
          "indexed": false,
          "name": "addressList",
          "type": "address[6]"
        },
        {
          "indexed": false,
          "name": "winMoneyList",
          "type": "uint256[6]"
        }
      ],
      "name": "LogSentRoomData",
      "type": "event"
    },
    {
      "anonymous": false,
      "inputs": [
        {
          "indexed": false,
          "name": "unfinishedRoomID",
          "type": "uint256[]"
        },
        {
          "indexed": false,
          "name": "hotWinRoomID",
          "type": "uint256[]"
        },
        {
          "indexed": false,
          "name": "finishedRoomID",
          "type": "uint256[]"
        },
        {
          "indexed": false,
          "name": "winnerMoney",
          "type": "uint256[]"
        }
      ],
      "name": "LogSentLists",
      "type": "event"
    },
    {
      "anonymous": false,
      "inputs": [
        {
          "indexed": false,
          "name": "logData",
          "type": "uint256"
        }
      ],
      "name": "sendData",
      "type": "event"
    }
  ],
  "bytecode": "0x60606040526000600155600060075560006008556000600a556000600b55341561002857600080fd5b600060018190555033600660006101000a81548173ffffffffffffffffffffffffffffffffffffffff021916908373ffffffffffffffffffffffffffffffffffffffff1602179055506120ad806100806000396000f3006060604052600436106100d0576000357c0100000000000000000000000000000000000000000000000000000000900463ffffffff16806301148b8b146100d55780631c02708d1461010c5780632e6d18ec146101215780633262fd9a146101f357806334bf708a146102235780634b972a8d1461029b5780635fca48c9146102d25780638a77f5171461030957806395b2aaab146103375780639cfc4b45146103a1578063a91bf467146103b9578063b9f50a4914610431578063bbba825714610468578063ed90416c14610480575b600080fd5b34156100e057600080fd5b6100f660048080359060200190919050506104c5565b6040518082815260200191505060405180910390f35b341561011757600080fd5b61011f6104e9565b005b341561012c57600080fd5b6101426004808035906020019091905050610580565b6040518087815260200186815260200185815260200184600660200280838360005b8381101561017f578082015181840152602081019050610164565b5050505090500183600660200280838360005b838110156101ad578082015181840152602081019050610192565b5050505090500182600660200280838360005b838110156101db5780820151818401526020810190506101c0565b50505050905001965050505050505060405180910390f35b6102096004808035906020019091905050610726565b604051808215151515815260200191505060405180910390f35b341561022e57600080fd5b6102446004808035906020019091905050610a17565b6040518080602001828103825283818151815260200191508051906020019060200280838360005b8381101561028757808201518184015260208101905061026c565b505050509050019250505060405180910390f35b34156102a657600080fd5b6102bc6004808035906020019091905050610b6e565b6040518082815260200191505060405180910390f35b34156102dd57600080fd5b6102f36004808035906020019091905050610b92565b6040518082815260200191505060405180910390f35b610335600480803573ffffffffffffffffffffffffffffffffffffffff16906020019091905050610bb6565b005b341561034257600080fd5b61034a610c57565b6040518080602001828103825283818151815260200191508051906020019060200280838360005b8381101561038d578082015181840152602081019050610372565b505050509050019250505060405180910390f35b6103b76004808035906020019091905050610d19565b005b34156103c457600080fd5b6103da60048080359060200190919050506110f8565b6040518080602001828103825283818151815260200191508051906020019060200280838360005b8381101561041d578082015181840152602081019050610402565b505050509050019250505060405180910390f35b341561043c57600080fd5b610452600480803590602001909190505061124f565b6040518082815260200191505060405180910390f35b61047e6004808035906020019091905050611273565b005b341561048b57600080fd5b6104a160048080359060200190919050506116bc565b60405180848152602001838152602001828152602001935050505060405180910390f35b6002818154811015156104d457fe5b90600052602060002090016000915090505481565b600660009054906101000a900473ffffffffffffffffffffffffffffffffffffffff1673ffffffffffffffffffffffffffffffffffffffff163373ffffffffffffffffffffffffffffffffffffffff1614151561054557600080fd5b600660009054906101000a900473ffffffffffffffffffffffffffffffffffffffff1673ffffffffffffffffffffffffffffffffffffffff16ff5b600080600061058d611e5e565b610595611e86565b61059d611e5e565b60008088815260200190815260200160002060000154600080898152602001908152602001600020600101546000808a8152602001908152602001600020600201546000808b81526020019081526020016000206003016000808c81526020019081526020016000206009016000808d8152602001908152602001600020600f0182600680602002604051908101604052809291908260068015610656576020028201915b815481526020019060010190808311610642575b50505050509250816006806020026040519081016040528092919082600680156106cb576020028201915b8160009054906101000a900473ffffffffffffffffffffffffffffffffffffffff1673ffffffffffffffffffffffffffffffffffffffff1681526020019060010190808311610681575b505050505091508060068060200260405190810160405280929190826006801561070a576020028201915b8154815260200190600101908083116106f6575b5050505050905095509550955095509550955091939550919395565b600080600080600092505b60008086815260200190815250600683101561081f576000808681526020019081526020016000206009018360068110151561076957fe5b0160009054906101000a900473ffffffffffffffffffffffffffffffffffffffff1673ffffffffffffffffffffffffffffffffffffffff163373ffffffffffffffffffffffffffffffffffffffff16141561081257600080868152602001908152602001600020600f01836006811015156107e057fe5b015491506000806000878152602001908152602001600020600f018460068110151561080857fe5b018190555061081f565b8280600101935050610731565b3090506000821180156108485750818173ffffffffffffffffffffffffffffffffffffffff1631115b151561085357600080fd5b3373ffffffffffffffffffffffffffffffffffffffff166108fc839081150290604051600060405180830381858888f19350505050151561089357600080fd5b7fc5085409166660af03a5c9b0dab8467235da0dfcbf5704281f598f711c5c2a3d8560008088815260200190815260200160002060000154600080898152602001908152602001600020600101546000808a8152602001908152602001600020600201546000808b81526020019081526020016000206003016000808c81526020019081526020016000206009016000808d8152602001908152602001600020600f01604051808881526020018781526020018681526020018581526020018460068015610976576020028201915b815481526020019060010190808311610962575b505083600680156109d2576020028201915b8160009054906101000a900473ffffffffffffffffffffffffffffffffffffffff1673ffffffffffffffffffffffffffffffffffffffff1681526020019060010190808311610988575b505082600680156109f8576020028201915b8154815260200190600101908083116109e4575b505097505050505050505060405180910390a160019350505050919050565b610a1f611ec4565b6000806014604051805910610a315750595b9080825280602002602001820160405250925060009150600090505b8251821015610a815760008383815181101515610a6657fe5b90602001906020020181815250508180600101925050610a4d565b60009150836002805490501115610b645760148460028054905003101515610b03578391505b60148401821015610afe57600282815481101515610ac157fe5b9060005260206000209001548382815181101515610adb57fe5b906020019060200201818152505080806001019150508180600101925050610aa7565b610b63565b8391505b8360028054905003821015610b6257600282815481101515610b2557fe5b9060005260206000209001548382815181101515610b3f57fe5b906020019060200201818152505080806001019150508180600101925050610b07565b5b5b8292505050919050565b600481815481101515610b7d57fe5b90600052602060002090016000915090505481565b600581815481101515610ba157fe5b90600052602060002090016000915090505481565b600660009054906101000a900473ffffffffffffffffffffffffffffffffffffffff1673ffffffffffffffffffffffffffffffffffffffff163373ffffffffffffffffffffffffffffffffffffffff16141515610c1257600080fd5b8073ffffffffffffffffffffffffffffffffffffffff166108fc6007549081150290604051600060405180830381858888f193505050501515610c5457600080fd5b50565b610c5f611ec4565b60006004604051805910610c705750595b90808252806020026020018201604052509150600090505b8151811015610cbc5760008282815181101515610ca157fe5b90602001906020020181815250508080600101915050610c88565b600090505b600380549050811015610d1257600381815481101515610cdd57fe5b9060005260206000209001548282815181101515610cf757fe5b90602001906020020181815250508080600101915050610cc1565b8191505090565b6000806000808481526020019081526020016000206000015460008085815260200190815260200160002060020154101515610d5457600080fd5b6000808481526020019081526020016000209150816001015434141515610d7a57600080fd5b8160020154905060008260030182600681101515610d9457fe5b0181905550338260090182600681101515610dab57fe5b0160006101000a81548173ffffffffffffffffffffffffffffffffffffffff021916908373ffffffffffffffffffffffffffffffffffffffff160217905550600082600f0182600681101515610dfd57fe5b01819055508160020160008154809291906001019190505550816000015482600201541415610e3057610e2f836116e6565b5b7fc5085409166660af03a5c9b0dab8467235da0dfcbf5704281f598f711c5c2a3d836000808681526020019081526020016000206000015460008087815260200190815260200160002060010154600080888152602001908152602001600020600201546000808981526020019081526020016000206003016000808a81526020019081526020016000206009016000808b8152602001908152602001600020600f01604051808881526020018781526020018681526020018581526020018460068015610f13576020028201915b815481526020019060010190808311610eff575b50508360068015610f6f576020028201915b8160009054906101000a900473ffffffffffffffffffffffffffffffffffffffff1673ffffffffffffffffffffffffffffffffffffffff1681526020019060010190808311610f25575b50508260068015610f95576020028201915b815481526020019060010190808311610f81575b505097505050505050505060405180910390a17f542691c2ded9dee01f39ae95d0ec9b5b066d4cb9c4cc78e05e8a69cf177eba5960026003600460056040518080602001806020018060200180602001858103855289818154815260200191508054801561102257602002820191906000526020600020905b81548152602001906001019080831161100e575b5050858103845288818154815260200191508054801561106157602002820191906000526020600020905b81548152602001906001019080831161104d575b505085810383528781815481526020019150805480156110a057602002820191906000526020600020905b81548152602001906001019080831161108c575b505085810382528681815481526020019150805480156110df57602002820191906000526020600020905b8154815260200190600101908083116110cb575b50509850505050505050505060405180910390a1505050565b611100611ec4565b60008060146040518059106111125750595b9080825280602002602001820160405250925060009150600090505b8251821015611162576000838381518110151561114757fe5b9060200190602002018181525050818060010192505061112e565b6000915083600480549050111561124557601484600480549050031015156111e4578391505b601484018210156111df576004828154811015156111a257fe5b90600052602060002090015483828151811015156111bc57fe5b906020019060200201818152505080806001019150508180600101925050611188565b611244565b8391505b83600480549050038210156112435760048281548110151561120657fe5b906000526020600020900154838281518110151561122057fe5b9060200190602002018181525050808060010191505081806001019250506111e8565b5b5b8292505050919050565b60038181548110151561125e57fe5b90600052602060002090016000915090505481565b600061127d611e5e565b611285611e86565b61128d611e5e565b600160008154809291906001019190505550600154935060008360006006811015156112b557fe5b602002018181525050338260006006811015156112ce57fe5b602002019073ffffffffffffffffffffffffffffffffffffffff16908173ffffffffffffffffffffffffffffffffffffffff1681525050600081600060068110151561131657fe5b60200201818152505060c0604051908101604052808681526020013481526020016001815260200184815260200183815260200182815250600080868152602001908152602001600020600082015181600001556020820151816001015560408201518160020155606082015181600301906006611395929190611ed8565b506080820151816009019060066113ad929190611f18565b5060a082015181600f019060066113c5929190611ed8565b50905050600280548060010182816113dd9190611f95565b9160005260206000209001600086909190915055507fc5085409166660af03a5c9b0dab8467235da0dfcbf5704281f598f711c5c2a3d846000808781526020019081526020016000206000015460008088815260200190815260200160002060010154600080898152602001908152602001600020600201546000808a81526020019081526020016000206003016000808b81526020019081526020016000206009016000808c8152602001908152602001600020600f016040518088815260200187815260200186815260200185815260200184600680156114d5576020028201915b8154815260200190600101908083116114c1575b50508360068015611531576020028201915b8160009054906101000a900473ffffffffffffffffffffffffffffffffffffffff1673ffffffffffffffffffffffffffffffffffffffff16815260200190600101908083116114e7575b50508260068015611557576020028201915b815481526020019060010190808311611543575b505097505050505050505060405180910390a17f542691c2ded9dee01f39ae95d0ec9b5b066d4cb9c4cc78e05e8a69cf177eba596002600360046005604051808060200180602001806020018060200185810385528981815481526020019150805480156115e457602002820191906000526020600020905b8154815260200190600101908083116115d0575b5050858103845288818154815260200191508054801561162357602002820191906000526020600020905b81548152602001906001019080831161160f575b5050858103835287818154815260200191508054801561166257602002820191906000526020600020905b81548152602001906001019080831161164e575b505085810382528681815481526020019150805480156116a157602002820191906000526020600020905b81548152602001906001019080831161168d575b50509850505050505050505060405180910390a15050505050565b60006020528060005260406000206000915090508060000154908060010154908060020154905083565b6000806000806000806000806000806000806000600b8190555060009b5060009a506000600a8190555060009b505b6000808e8152602001908152602001600020600201548c1015611823576000808e81526020019081526020016000206009018c60068110151561175457fe5b0160009054906101000a900473ffffffffffffffffffffffffffffffffffffffff169950600160068d420281151561178857fe5b0601600a81905550600a54600960008c73ffffffffffffffffffffffffffffffffffffffff1673ffffffffffffffffffffffffffffffffffffffff16815260200190815260200160002081905550600a546000808f81526020019081526020016000206003018d6006811015156117fb57fe5b0181905550600b54600a54111561181657600a54600b819055505b8b806001019c5050611715565b60009b505b6000808e8152602001908152602001600020600201548c1015611944576000808e81526020019081526020016000206009018c60068110151561186757fe5b0160009054906101000a900473ffffffffffffffffffffffffffffffffffffffff169750600b54600960008a73ffffffffffffffffffffffffffffffffffffffff1673ffffffffffffffffffffffffffffffffffffffff168152602001908152602001600020541415611937578880548060010182816118e79190611fc1565b916000526020600020900160008a909190916101000a81548173ffffffffffffffffffffffffffffffffffffffff021916908373ffffffffffffffffffffffffffffffffffffffff160217905550505b8b806001019c5050611828565b6000808e8152602001908152602001600020600201546000808f815260200190815260200160002060010154029650612710600854612710038a805490508981151561198c57fe5b040281151561199757fe5b04955060009b505b6000808e8152602001908152602001600020600201548c1015611aee5760009a505b88805490508b1015611ae157888b8154811015156119db57fe5b906000526020600020900160009054906101000a900473ffffffffffffffffffffffffffffffffffffffff1673ffffffffffffffffffffffffffffffffffffffff166000808f81526020019081526020016000206009018d600681101515611a3f57fe5b0160009054906101000a900473ffffffffffffffffffffffffffffffffffffffff1673ffffffffffffffffffffffffffffffffffffffff161415611aaa57856000808f8152602001908152602001600020600f018d600681101515611aa057fe5b0181905550611ad4565b60008060008f8152602001908152602001600020600f018d600681101515611ace57fe5b01819055505b8a806001019b50506119c1565b8b806001019c505061199f565b88805490508602870360076000828254019250508190555060046003805490501015611b6b5760038054806001018281611b289190611f95565b916000526020600020900160008f9091909150555060058054806001018281611b519190611f95565b916000526020600020900160008990919091505550611bcf565b8660056003815481101515611b7c57fe5b9060005260206000209001541015611bce578c600380815481101515611b9e57fe5b9060005260206000209001819055508660056003815481101515611bbe57fe5b9060005260206000209001819055505b5b600380549050945060009b505b848c1015611d385760009a505b848b1015611d2b5760058c815481101515611c0057fe5b906000526020600020900154915060058b815481101515611c1d57fe5b906000526020600020900154905080821015611d1e5760058b815481101515611c4257fe5b906000526020600020900154925060058c815481101515611c5f57fe5b90600052602060002090015460058c815481101515611c7a57fe5b9060005260206000209001819055508260058d815481101515611c9957fe5b90600052602060002090018190555060038b815481101515611cb757fe5b906000526020600020900154935060038c815481101515611cd457fe5b90600052602060002090015460038c815481101515611cef57fe5b9060005260206000209001819055508360038d815481101515611d0e57fe5b9060005260206000209001819055505b8a806001019b5050611be9565b8b806001019c5050611bdc565b60009b505b6002805490508c1015611d7e578c60028d815481101515611d5a57fe5b9060005260206000209001541415611d7157611d7e565b8b806001019c5050611d3d565b6001600280549050038c141515611dea575b6001600280549050038c1015611de957600260018d01815481101515611db257fe5b90600052602060002090015460028d815481101515611dcd57fe5b9060005260206000209001819055508b806001019c5050611d90565b5b6002600160028054905003815481101515611e0157fe5b9060005260206000209001600090556002805480919060019003611e259190611fed565b5060048054806001018281611e3a9190611f95565b916000526020600020900160008f9091909150555050505050505050505050505050565b60c0604051908101604052806006905b6000815260200190600190039081611e6e5790505090565b60c0604051908101604052806006905b600073ffffffffffffffffffffffffffffffffffffffff16815260200190600190039081611e965790505090565b602060405190810160405280600081525090565b8260068101928215611f07579160200282015b82811115611f06578251825591602001919060010190611eeb565b5b509050611f149190612019565b5090565b8260068101928215611f84579160200282015b82811115611f835782518260006101000a81548173ffffffffffffffffffffffffffffffffffffffff021916908373ffffffffffffffffffffffffffffffffffffffff16021790555091602001919060010190611f2b565b5b509050611f91919061203e565b5090565b815481835581811511611fbc57818360005260206000209182019101611fbb9190612019565b5b505050565b815481835581811511611fe857818360005260206000209182019101611fe79190612019565b5b505050565b815481835581811511612014578183600052602060002091820191016120139190612019565b5b505050565b61203b91905b8082111561203757600081600090555060010161201f565b5090565b90565b61207e91905b8082111561207a57600081816101000a81549073ffffffffffffffffffffffffffffffffffffffff021916905550600101612044565b5090565b905600a165627a7a72305820bd7fd0028f3a212d7db72cc0b8aef8e8f843629ccce29b5c5455187855a7282b0029",
  "source": "pragma solidity ^0.4.17;\n\n// import \"./oraclizeAPI.sol\";\n\ncontract PlayDice {\n\n    struct RoomData{\n        uint playerNum;\n        uint roomMoney;//\n        uint playerEnterdCount;//adduser\n        uint [6] rollNumList;\n        address [6] addressList;\n        uint [6] winMoneyList;\n    }\n\n    mapping (uint => RoomData) public allRoomsMap;//roomIDroom\n    uint maxRoomID=0;//ROOMID0+1ID\n    uint [] public unfinishedRoomID;//ID\n    uint [] public hotWinRoomID;//hotwinID\n    uint [] public finishedRoomID;//ID\n    uint [] public winnerMoney;//4\n\n    address owner;\n    //\n    uint commission = 0;\n    //1/10000\n    uint commissionProportion = 0;\n\n    mapping (address => uint) playerRollNum;\n    uint time_random=0;\n    uint maxNum = 0;\n\n    event LogSentRoomData(uint roomID, uint playerNum, uint roomMoney, uint playerEnterdCount, uint [6] rollNumList, address [6] addressList, uint [6] winMoneyList);\n    event LogSentLists(uint[] unfinishedRoomID,uint[] hotWinRoomID,uint[] finishedRoomID,uint[] winnerMoney);\n\n    event sendData(uint logData);\n\n    function PlayDice() public{\n         maxRoomID=0;\n         owner = msg.sender;\n    }\n\n    // get commission money\n    function getContractMoney(address target) public payable{\n        require(msg.sender == owner);\n        target.transfer( commission );\n    }\n\n    //kill self\n    function killContract() public{\n        require(msg.sender == owner);\n        selfdestruct( owner );\n    }\n\n    //\n    // function getRandomNum() public payable returns(bytes32 myid)\n    // {\n    // //   results[msg.sender] = 0;\n    //     // myid =\n    //     //         oraclize_query(\n    //     //             \"nested\",\n    //     //             \"[URL] ['json(https://api.random.org/json-rpc/1/invoke).result.random.data.0', '\\\\n{\\\"jsonrpc\\\":\\\"2.0\\\",\\\"method\\\":\\\"generateSignedIntegers\\\",\\\"params\\\":{\\\"apiKey\\\":${[decrypt] BJ5a3yY9W3QsrTn/ChMwRJBtt+I5S4aEM6RVELUydl2tlqEjYIHoiWFnaatIUAQ76prgz1uoWI4Zpdj0gNMSS3n/vn7br6SMy9zpLZCRVqPS7TIcYHMJdLAn9AuzvsQv/htDTK0G1AnYcVppBzI+Zrii74hk7Ew=},\\\"n\\\":1,\\\"min\\\":1,\\\"max\\\":10000${[identity] \\\"}\\\"},\\\"id\\\":1${[identity] \\\"}\\\"}']\",\n    //     //             ORACLIZE_GAS_LIMIT + safeGas\n    //     //         );\n    // //   LOG_NewBet(msg.sender,msg.value);\n    // //   bets[myid] = Bet(msg.sender, msg.value, 0);\n    // //   betsKeys.push(myid);\n    //     return myid;\n    // }\n\n    //20idstartID20\n    function getUnfinishedRoomIDs(uint startID) public view returns(uint[] memory backUnfinishedRoomIDs)\n    {\n        \n        backUnfinishedRoomIDs = new uint[](20);\n        uint i=0;\n        uint j=0;\n        for (i; i < backUnfinishedRoomIDs.length; i++) {\n            backUnfinishedRoomIDs[i] = 0;\n        }\n\n        i=0;\n        if( unfinishedRoomID.length > startID ){\n\n            if ( unfinishedRoomID.length - startID >= 20 ){\n                for (i=startID; i<startID+20; i++){\n                    backUnfinishedRoomIDs[j] = unfinishedRoomID[i];\n                    j++;\n                }\n            }else{\n                for (i=startID; i < unfinishedRoomID.length-startID; i++){\n                    backUnfinishedRoomIDs[j] = unfinishedRoomID[i];\n                    j++;\n                }\n            }   \n\n        }\n\n        return backUnfinishedRoomIDs;\n    }\n\n    //20idstartID20\n    function getFinishedRoomIDs(uint startFinishID) public view returns(uint[] memory backFinishedRoomIDs)\n    {\n        backFinishedRoomIDs = new uint[](20);\n        uint i=0;\n        uint j=0;        \n        for (i; i < backFinishedRoomIDs.length; i++) {\n            backFinishedRoomIDs[i] = 0;\n        }\n\n        i=0;\n        if( finishedRoomID.length > startFinishID ){\n            if ( finishedRoomID.length - startFinishID >= 20 ){\n                for (i=startFinishID; i<startFinishID+20; i++){\n                    backFinishedRoomIDs[j] = finishedRoomID[i];\n                    j++;\n                }\n            }else{\n                for (i=startFinishID; i < finishedRoomID.length-startFinishID; i++){\n                    backFinishedRoomIDs[j] = finishedRoomID[i];\n                    j++;\n                }\n            }   \n        }\n\n        return backFinishedRoomIDs;\n    }\n\n    //\n    function getHotWinRoomIDs() public view returns(uint[] memory backHotWinRoomId)\n    {\n        backHotWinRoomId = new uint[](4);\n        uint i=0;\n        for (i; i < backHotWinRoomId.length; i++) {\n            backHotWinRoomId[i] = 0;\n        }\n\n        for (i=0; i<hotWinRoomID.length; i++){\n            backHotWinRoomId[i] = hotWinRoomID[i];\n        }\n        return backHotWinRoomId;\n    }\n\n    //ROLL\n    function getRoomData(uint roomID) public view returns(\n        uint playerNum,\n        uint roomMoney,\n        uint playerEnterdCount,\n        uint[6] playerRollNumList,\n        address[6] playerAddressList,\n        uint[6] winMoneyList\n        )\n    {\n        //listmaproom\n        return ( allRoomsMap[roomID].playerNum,allRoomsMap[roomID].roomMoney,allRoomsMap[roomID].playerEnterdCount,allRoomsMap[roomID].rollNumList, allRoomsMap[roomID].addressList,allRoomsMap[roomID].winMoneyList  );\n\n    }\n\n    //\n    function createRoom( uint playerNum ) public payable{\n        //1maxRoomIDID\n        //2RoomData\n        //3unfinishedRoomID\n        //4allRoomsMap\n        //5roomID\n        maxRoomID++;\n        uint rid = maxRoomID;\n        uint [6] memory rollNumList;\n        rollNumList[0] = 0;\n        address [6] memory addressList;\n        addressList[0]=msg.sender;\n        uint [6] memory winMoneyList;\n        winMoneyList[0]=0;\n\n        allRoomsMap[rid] = RoomData(playerNum, msg.value, 1, rollNumList, addressList, winMoneyList);\n        unfinishedRoomID.push(rid);\n\n        LogSentRoomData( rid,  allRoomsMap[rid].playerNum,  allRoomsMap[rid].roomMoney,  allRoomsMap[rid].playerEnterdCount,  allRoomsMap[rid].rollNumList, allRoomsMap[rid].addressList,  allRoomsMap[rid].winMoneyList);\n        LogSentLists(unfinishedRoomID,hotWinRoomID,finishedRoomID,winnerMoney);\n        \n        // return maxRoomID;\n\n    }\n\n    //\n    function joinRoom(uint roomID) public payable{\n        //1ROOM\n        //2roomMoney\n        //3\n        //4ROLL\n        //5ROLLevent\n        require ( allRoomsMap[roomID].playerEnterdCount < allRoomsMap[roomID].playerNum );\n        RoomData roomData = allRoomsMap[roomID];\n        require( msg.value == roomData.roomMoney );\n        uint playerEnterdCount = roomData.playerEnterdCount;\n        roomData.rollNumList[ playerEnterdCount ] = 0;\n        roomData.addressList[ playerEnterdCount ] = msg.sender;\n        roomData.winMoneyList[ playerEnterdCount ] = 0;\n        roomData.playerEnterdCount++;\n\n        if( roomData.playerEnterdCount == roomData.playerNum ){\n            roll(roomID);\n        } \n        \n        LogSentRoomData( roomID,  allRoomsMap[roomID].playerNum,  allRoomsMap[roomID].roomMoney,  allRoomsMap[roomID].playerEnterdCount,  allRoomsMap[roomID].rollNumList, allRoomsMap[roomID].addressList,  allRoomsMap[roomID].winMoneyList);\n        LogSentLists(unfinishedRoomID,hotWinRoomID,finishedRoomID,winnerMoney);\n        \n    }\n\n    //roll\n    function roll(uint roomID) private{\n        //1unfinished list\n        //2rollNum123\n        //3winMoney0\n        //4hotwinList\n        //5finishedRoomID\n\n        maxNum=0;\n        uint i=0;\n        uint j=0;\n        time_random=0;\n        \n        for ( i=0; i<allRoomsMap[roomID].playerEnterdCount; i++ ){\n\n            address playAdd= allRoomsMap[roomID].addressList[i];\n\n            time_random = (now*i)%6+1;\n            //rollStart\n            playerRollNum[playAdd] = time_random;\n            allRoomsMap[roomID].rollNumList[i] = time_random;\n            //rollEnd \n\n            if ( time_random > maxNum ){\n                maxNum = time_random;\n            }\n\n        }\n\n        //\n        address[] storage winnerAdd;\n\n        for ( i=0; i<allRoomsMap[roomID].playerEnterdCount; i++ ){\n            address player = allRoomsMap[roomID].addressList[i];\n            if ( playerRollNum[player] == maxNum){\n                winnerAdd.push( player );\n            }\n        }\n\n        uint winnerM = allRoomsMap[roomID].roomMoney * allRoomsMap[roomID].playerEnterdCount;\n        /*for ( i=0; i<allRoomsMap[roomID].playerEnterdCount; i++ ){\n            winnerM +=  allRoomsMap[roomID].roomMoney;\n            allRoomsMap[roomID].winMoneyList[i] = 0;\n        }*/\n        \n        //\n        uint winnerGet = winnerM / winnerAdd.length * (10000 - commissionProportion) / 10000;\n        for (i=0; i<allRoomsMap[roomID].playerEnterdCount; i++ ){\n            for (j=0; j<winnerAdd.length; j++ ){\n                if( allRoomsMap[roomID].addressList[i]==winnerAdd[j] ){\n                    allRoomsMap[roomID].winMoneyList[i] = winnerGet;\n                }else{\n                    allRoomsMap[roomID].winMoneyList[i] = 0;\n                }\n            }\n        }\n        commission += winnerM - winnerGet * winnerAdd.length;\n        \n\n\n        if( hotWinRoomID.length < 4 ){\n            hotWinRoomID.push(roomID);\n            winnerMoney.push(winnerM);\n        }else{\n            if( winnerMoney[3] < winnerM ){\n                hotWinRoomID[3]=roomID;\n                winnerMoney[3]=winnerM;\n            }\n        }\n\n\n        //4\n        uint len = hotWinRoomID.length;\n        uint dRoomId;\n        uint dWinnerM;\n\n        for(i=0; i<len; i++){ \n            for(j=0; j<len; j++){ \n                uint acount1= winnerMoney[i];\n                uint acount2 = winnerMoney[j];\n                if( acount1 < acount2 ){ \n\n                    dWinnerM = winnerMoney[j]; \n                    winnerMoney[j] = winnerMoney[i]; \n                    winnerMoney[i] = dWinnerM;\n\n                    dRoomId = hotWinRoomID[j]; \n                    hotWinRoomID[j] = hotWinRoomID[i]; \n                    hotWinRoomID[i] = dRoomId;\n\n                } \n            } \n        }\n\n\n        // delete, \n        for( i=0; i<unfinishedRoomID.length; i++ ){\n            if ( unfinishedRoomID[i] == roomID  ){\n                break;\n            }\n        }\n\n        if (i != unfinishedRoomID.length-1 ){\n            for ( i; i<unfinishedRoomID.length-1; i++ ){\n                unfinishedRoomID[i] = unfinishedRoomID[i+1];\n            }\n        }\n        delete unfinishedRoomID[unfinishedRoomID.length-1];\n        unfinishedRoomID.length--;\n\n        finishedRoomID.push(roomID);\n   \n    }\n\n\n    //\n    function getMoney(uint roomID) public payable returns (bool) {\n        //1maproom\n        //2winMoney00\n        //3winMoney0transfertransfer\n\n        uint i=0;\n        uint amount;\n        for(i; i<allRoomsMap[roomID].addressList.length; i++){\n            if(msg.sender == allRoomsMap[roomID].addressList[i]){\n                amount= allRoomsMap[roomID].winMoneyList[i];\n                allRoomsMap[roomID].winMoneyList[i] = 0;\n                break;\n            }\n        }\n\n        address myAddress = this;\n        \n        require(amount > 0 && myAddress.balance > amount );\n        msg.sender.transfer(amount);\n\n        LogSentRoomData( roomID,  allRoomsMap[roomID].playerNum,  allRoomsMap[roomID].roomMoney,  allRoomsMap[roomID].playerEnterdCount,  allRoomsMap[roomID].rollNumList, allRoomsMap[roomID].addressList,  allRoomsMap[roomID].winMoneyList);\n        return true;\n\n    }\n\n    //\n}\n\n",
  "sourcePath": "/Users/squall/playDice/contracts/PlayDice.sol",
  "compiler": {
    "name": "solc",
    "version": "0.4.18+commit.9cf6e910.Emscripten.clang"
  },
  "schemaVersion": "1.0.1",
  "updatedAt": "2018-02-01T06:34:18.512Z"
}